{
  "_format": "hh-sol-artifact-1",
  "contractName": "MiniStaking",
  "sourceName": "contracts/MiniStaking.sol",
  "abi": [
    {
      "inputs": [
        {
          "internalType": "address",
          "name": "_token",
          "type": "address"
        },
        {
          "internalType": "address",
          "name": "_treasuryWallet",
          "type": "address"
        }
      ],
      "stateMutability": "nonpayable",
      "type": "constructor"
    },
    {
      "inputs": [
        {
          "internalType": "address",
          "name": "owner",
          "type": "address"
        }
      ],
      "name": "OwnableInvalidOwner",
      "type": "error"
    },
    {
      "inputs": [
        {
          "internalType": "address",
          "name": "account",
          "type": "address"
        }
      ],
      "name": "OwnableUnauthorizedAccount",
      "type": "error"
    },
    {
      "inputs": [],
      "name": "ReentrancyGuardReentrantCall",
      "type": "error"
    },
    {
      "inputs": [
        {
          "internalType": "address",
          "name": "token",
          "type": "address"
        }
      ],
      "name": "SafeERC20FailedOperation",
      "type": "error"
    },
    {
      "anonymous": false,
      "inputs": [
        {
          "indexed": true,
          "internalType": "address",
          "name": "user",
          "type": "address"
        },
        {
          "indexed": true,
          "internalType": "uint256",
          "name": "stakeId",
          "type": "uint256"
        },
        {
          "indexed": false,
          "internalType": "uint256",
          "name": "penalty",
          "type": "uint256"
        }
      ],
      "name": "EmergencyWithdraw",
      "type": "event"
    },
    {
      "anonymous": false,
      "inputs": [
        {
          "indexed": true,
          "internalType": "address",
          "name": "previousOwner",
          "type": "address"
        },
        {
          "indexed": true,
          "internalType": "address",
          "name": "newOwner",
          "type": "address"
        }
      ],
      "name": "OwnershipTransferred",
      "type": "event"
    },
    {
      "anonymous": false,
      "inputs": [
        {
          "indexed": true,
          "internalType": "address",
          "name": "account",
          "type": "address"
        }
      ],
      "name": "Paused",
      "type": "event"
    },
    {
      "anonymous": false,
      "inputs": [
        {
          "indexed": true,
          "internalType": "address",
          "name": "user",
          "type": "address"
        },
        {
          "indexed": true,
          "internalType": "uint256",
          "name": "stakeId",
          "type": "uint256"
        },
        {
          "indexed": false,
          "internalType": "uint256",
          "name": "amount",
          "type": "uint256"
        }
      ],
      "name": "Staked",
      "type": "event"
    },
    {
      "anonymous": false,
      "inputs": [
        {
          "indexed": true,
          "internalType": "address",
          "name": "account",
          "type": "address"
        }
      ],
      "name": "Unpaused",
      "type": "event"
    },
    {
      "anonymous": false,
      "inputs": [
        {
          "indexed": true,
          "internalType": "address",
          "name": "user",
          "type": "address"
        },
        {
          "indexed": true,
          "internalType": "uint256",
          "name": "stakeId",
          "type": "uint256"
        },
        {
          "indexed": false,
          "internalType": "uint256",
          "name": "stakeAmount",
          "type": "uint256"
        },
        {
          "indexed": false,
          "internalType": "uint256",
          "name": "rewardMultiplier",
          "type": "uint256"
        },
        {
          "indexed": false,
          "internalType": "uint256",
          "name": "calculatedReward",
          "type": "uint256"
        },
        {
          "indexed": false,
          "internalType": "uint256",
          "name": "totalPayout",
          "type": "uint256"
        },
        {
          "indexed": false,
          "internalType": "uint256",
          "name": "contractBalance",
          "type": "uint256"
        }
      ],
      "name": "WithdrawDebug",
      "type": "event"
    },
    {
      "anonymous": false,
      "inputs": [
        {
          "indexed": true,
          "internalType": "address",
          "name": "user",
          "type": "address"
        },
        {
          "indexed": true,
          "internalType": "uint256",
          "name": "stakeId",
          "type": "uint256"
        },
        {
          "indexed": false,
          "internalType": "uint256",
          "name": "reward",
          "type": "uint256"
        }
      ],
      "name": "Withdrawn",
      "type": "event"
    },
    {
      "inputs": [],
      "name": "MAX_LOCK_PERIOD",
      "outputs": [
        {
          "internalType": "uint256",
          "name": "",
          "type": "uint256"
        }
      ],
      "stateMutability": "view",
      "type": "function"
    },
    {
      "inputs": [
        {
          "internalType": "uint256",
          "name": "stakeIndex",
          "type": "uint256"
        }
      ],
      "name": "emergencyWithdraw",
      "outputs": [],
      "stateMutability": "nonpayable",
      "type": "function"
    },
    {
      "inputs": [],
      "name": "getTreasuryAllowance",
      "outputs": [
        {
          "internalType": "uint256",
          "name": "",
          "type": "uint256"
        }
      ],
      "stateMutability": "view",
      "type": "function"
    },
    {
      "inputs": [
        {
          "internalType": "address",
          "name": "user",
          "type": "address"
        }
      ],
      "name": "getUserStakingInfo",
      "outputs": [
        {
          "components": [
            {
              "internalType": "uint128",
              "name": "amount",
              "type": "uint128"
            },
            {
              "internalType": "uint48",
              "name": "startTime",
              "type": "uint48"
            },
            {
              "internalType": "uint48",
              "name": "endTime",
              "type": "uint48"
            },
            {
              "internalType": "enum MiniStaking.LockPeriod",
              "name": "lockPeriod",
              "type": "uint8"
            },
            {
              "internalType": "uint256",
              "name": "rewardMultiplier",
              "type": "uint256"
            },
            {
              "internalType": "bool",
              "name": "active",
              "type": "bool"
            }
          ],
          "internalType": "struct MiniStaking.Stake[]",
          "name": "",
          "type": "tuple[]"
        }
      ],
      "stateMutability": "view",
      "type": "function"
    },
    {
      "inputs": [
        {
          "internalType": "uint256",
          "name": "",
          "type": "uint256"
        }
      ],
      "name": "lockPeriods",
      "outputs": [
        {
          "internalType": "uint256",
          "name": "",
          "type": "uint256"
        }
      ],
      "stateMutability": "view",
      "type": "function"
    },
    {
      "inputs": [
        {
          "internalType": "uint256",
          "name": "",
          "type": "uint256"
        }
      ],
      "name": "multipliers",
      "outputs": [
        {
          "internalType": "uint256",
          "name": "",
          "type": "uint256"
        }
      ],
      "stateMutability": "view",
      "type": "function"
    },
    {
      "inputs": [],
      "name": "owner",
      "outputs": [
        {
          "internalType": "address",
          "name": "",
          "type": "address"
        }
      ],
      "stateMutability": "view",
      "type": "function"
    },
    {
      "inputs": [],
      "name": "pause",
      "outputs": [],
      "stateMutability": "nonpayable",
      "type": "function"
    },
    {
      "inputs": [],
      "name": "paused",
      "outputs": [
        {
          "internalType": "bool",
          "name": "",
          "type": "bool"
        }
      ],
      "stateMutability": "view",
      "type": "function"
    },
    {
      "inputs": [],
      "name": "renounceOwnership",
      "outputs": [],
      "stateMutability": "nonpayable",
      "type": "function"
    },
    {
      "inputs": [],
      "name": "rewardToken",
      "outputs": [
        {
          "internalType": "contract IERC20",
          "name": "",
          "type": "address"
        }
      ],
      "stateMutability": "view",
      "type": "function"
    },
    {
      "inputs": [
        {
          "internalType": "address",
          "name": "newWallet",
          "type": "address"
        }
      ],
      "name": "setTreasuryWallet",
      "outputs": [],
      "stateMutability": "nonpayable",
      "type": "function"
    },
    {
      "inputs": [
        {
          "internalType": "uint256",
          "name": "amount",
          "type": "uint256"
        },
        {
          "internalType": "enum MiniStaking.LockPeriod",
          "name": "period",
          "type": "uint8"
        }
      ],
      "name": "stake",
      "outputs": [],
      "stateMutability": "nonpayable",
      "type": "function"
    },
    {
      "inputs": [],
      "name": "totalDistributed",
      "outputs": [
        {
          "internalType": "uint256",
          "name": "",
          "type": "uint256"
        }
      ],
      "stateMutability": "view",
      "type": "function"
    },
    {
      "inputs": [
        {
          "internalType": "address",
          "name": "newOwner",
          "type": "address"
        }
      ],
      "name": "transferOwnership",
      "outputs": [],
      "stateMutability": "nonpayable",
      "type": "function"
    },
    {
      "inputs": [],
      "name": "treasuryWallet",
      "outputs": [
        {
          "internalType": "address",
          "name": "",
          "type": "address"
        }
      ],
      "stateMutability": "view",
      "type": "function"
    },
    {
      "inputs": [],
      "name": "unpause",
      "outputs": [],
      "stateMutability": "nonpayable",
      "type": "function"
    },
    {
      "inputs": [
        {
          "internalType": "address",
          "name": "",
          "type": "address"
        },
        {
          "internalType": "uint256",
          "name": "",
          "type": "uint256"
        }
      ],
      "name": "userStakes",
      "outputs": [
        {
          "internalType": "uint128",
          "name": "amount",
          "type": "uint128"
        },
        {
          "internalType": "uint48",
          "name": "startTime",
          "type": "uint48"
        },
        {
          "internalType": "uint48",
          "name": "endTime",
          "type": "uint48"
        },
        {
          "internalType": "enum MiniStaking.LockPeriod",
          "name": "lockPeriod",
          "type": "uint8"
        },
        {
          "internalType": "uint256",
          "name": "rewardMultiplier",
          "type": "uint256"
        },
        {
          "internalType": "bool",
          "name": "active",
          "type": "bool"
        }
      ],
      "stateMutability": "view",
      "type": "function"
    },
    {
      "inputs": [
        {
          "internalType": "uint256",
          "name": "stakeIndex",
          "type": "uint256"
        }
      ],
      "name": "withdraw",
      "outputs": [],
      "stateMutability": "nonpayable",
      "type": "function"
    }
  ],
  "bytecode": "0x610100604052603c60a0908152607860c05260b460e052620000269060029060036200014e565b5060408051606081018252670de0b6b3a76400008152671158e460913d000060208201526714d1120d7b160000918101919091526200006a90600590600362000196565b503480156200007857600080fd5b50604051620017ff380380620017ff8339810160408190526200009b9162000206565b60016000553380620000c757604051631e4fbdf760e01b81526000600482015260240160405180910390fd5b620000d281620000fc565b506001600160a01b03918216608052600880546001600160a81b031916919092161790556200023e565b600180546001600160a01b038381166001600160a01b0319831681179093556040519116919082907f8be0079c531659141344cd1fd0a4f28419497f9722a3daafe3b4186f6b6457e090600090a35050565b826003810192821562000184579160200282015b8281111562000184578251829060ff1690559160200191906001019062000162565b5062000192929150620001d2565b5090565b826003810192821562000184579160200282015b828111156200018457825182906001600160401b0316905591602001919060010190620001aa565b5b80821115620001925760008155600101620001d3565b80516001600160a01b03811681146200020157600080fd5b919050565b600080604083850312156200021a57600080fd5b6200022583620001e9565b91506200023560208401620001e9565b90509250929050565b608051611566620002996000396000818161029e015281816103a3015281816107ef015281816108c501528181610921015281816109b401528181610a4901528181610cca01528181610d00015261102101526115666000f3fe608060405234801561001057600080fd5b50600436106101215760003560e01c80638456cb59116100ad578063e3ce030711610071578063e3ce03071461026a578063efca2eed14610272578063f2fde38b1461027b578063f55401621461028e578063f7c618c11461029957600080fd5b80638456cb59146102065780638da5cb5b1461020e578063a8602fea1461021f578063ac7fc26314610232578063b5d5b5fa1461024557600080fd5b80634c8f2a78116100f45780634c8f2a78146101865780635312ea8e146101a75780635c975abb146101ba578063715018a6146101de57806380933608146101e657600080fd5b806310087fb1146101265780632e1a7d4d1461013b5780633f4ba83a1461014e5780634626402b14610156575b600080fd5b610139610134366004611289565b6102c0565b005b6101396101493660046112bd565b6105e6565b610139610abc565b600854610169906001600160a01b031681565b6040516001600160a01b0390911681526020015b60405180910390f35b6101996101943660046112bd565b610b50565b60405190815260200161017d565b6101396101b53660046112bd565b610b67565b6008546101ce90600160a01b900460ff1681565b604051901515815260200161017d565b610139610d6b565b6101f96101f43660046112f2565b610d7f565b60405161017d919061134c565b610139610e81565b6001546001600160a01b0316610169565b61013961022d3660046112f2565b610ef3565b6101996102403660046112bd565b610f73565b6102586102533660046113e4565b610f83565b60405161017d9695949392919061140e565b610199610ff6565b61019960095481565b6101396102893660046112f2565b611091565b6101996301e1338081565b6101697f000000000000000000000000000000000000000000000000000000000000000081565b6102c86110cc565b600854600160a01b900460ff16156102fb5760405162461bcd60e51b81526004016102f29061145a565b60405180910390fd5b6000821161033c5760405162461bcd60e51b815260206004820152600e60248201526d043616e6e6f74207374616b6520360941b60448201526064016102f2565b600381600281111561035057610350611314565b60ff16106103965760405162461bcd60e51b8152602060048201526013602482015272125b9d985b1a59081b1bd8dac81c195c9a5bd9606a1b60448201526064016102f2565b6103cb6001600160a01b037f0000000000000000000000000000000000000000000000000000000000000000163330856110f6565b600060058260028111156103e1576103e1611314565b60ff16600381106103f4576103f4611486565b015490506000600283600281111561040e5761040e611314565b60ff166003811061042157610421611486565b01549050600a6000336001600160a01b03166001600160a01b031681526020019081526020016000206040518060c00160405280866001600160801b031681526020014265ffffffffffff168152602001834261047e91906114b2565b65ffffffffffff16815260200185600281111561049d5761049d611314565b81526020808201869052600160409283018190528454908101855560009485529381902083516003909502018054918401519284015165ffffffffffff908116600160b01b0265ffffffffffff60b01b1991909416600160801b026001600160b01b03199093166001600160801b0390961695909517919091179384168217815560608301519293909291839160ff60e01b1990911666ffffffffffffff60b01b1990911617600160e01b83600281111561055a5761055a611314565b0217905550608082015160018281019190915560a0909201516002909101805460ff1916911515919091179055336000908152600a60205260409020546105a191906114cb565b60405185815233907f1449c6dd7851abc30abf37f57715f492010519147cc2652fbc38202c18a6ee909060200160405180910390a350506105e26001600055565b5050565b6105ee6110cc565b600854600160a01b900460ff16156106185760405162461bcd60e51b81526004016102f29061145a565b336000908152600a6020526040902054811061066c5760405162461bcd60e51b8152602060048201526013602482015272092dcecc2d8d2c840e6e8c2d6ca40d2dcc8caf606b1b60448201526064016102f2565b336000908152600a6020526040812080548390811061068d5761068d611486565b60009182526020909120600390910201600281015490915060ff166106e55760405162461bcd60e51b815260206004820152600e60248201526d5374616b6520696e61637469766560901b60448201526064016102f2565b8054600160b01b900465ffffffffffff1642101561073c5760405162461bcd60e51b81526020600482015260146024820152732637b1b5903832b934b7b2103737ba1037bb32b960611b60448201526064016102f2565b6000670de0b6b3a764000080836001015461075791906114cb565b835461076c91906001600160801b03166114de565b61077691906114f5565b82549091506000906107929083906001600160801b03166114b2565b835460018501546040516370a0823160e01b8152306004820152929350869233927f1083b2c8989ce41ab934c03d8c41df479d1564a3bac6fc7888bf80fbf787a239926001600160801b0390911691879087906001600160a01b037f000000000000000000000000000000000000000000000000000000000000000016906370a0823190602401602060405180830381865afa158015610836573d6000803e3d6000fd5b505050506040513d601f19601f8201168201806040525081019061085a9190611517565b604080516001600160801b0390961686526020860194909452928401919091526060830152608082015260a00160405180910390a360028301805460ff19169055600980548391906000906108b09084906114b2565b909155505082546108f6906001600160a01b037f0000000000000000000000000000000000000000000000000000000000000000169033906001600160801b0316611163565b600854604051636eb1769f60e11b81526001600160a01b0391821660048201523060248201526000917f0000000000000000000000000000000000000000000000000000000000000000169063dd62ed3e90604401602060405180830381865afa158015610968573d6000803e3d6000fd5b505050506040513d601f19601f8201168201806040525081019061098c9190611517565b6008546040516370a0823160e01b81526001600160a01b0391821660048201529192506000917f0000000000000000000000000000000000000000000000000000000000000000909116906370a0823190602401602060405180830381865afa1580156109fd573d6000803e3d6000fd5b505050506040513d601f19601f82011682018060405250810190610a219190611517565b9050838210158015610a335750838110155b15610a7357600854610a73906001600160a01b037f00000000000000000000000000000000000000000000000000000000000000008116911633876110f6565b604051848152869033907f92ccf450a286a957af52509bc1c9939d1a6a481783e142e41e2499f0bb66ebc69060200160405180910390a35050505050610ab96001600055565b50565b610ac4611199565b600854600160a01b900460ff16610b165760405162461bcd60e51b815260206004820152601660248201527510dbdb9d1c9858dd081a5cc81b9bdd081c185d5cd95960521b60448201526064016102f2565b6008805460ff60a01b1916905560405133907f5db9ee0a495bf2e6ff9c91a7834c1ba4fdd244a5e8aa4e537bd38aeae4b073aa90600090a2565b60028160038110610b6057600080fd5b0154905081565b610b6f6110cc565b600854600160a01b900460ff1615610b995760405162461bcd60e51b81526004016102f29061145a565b336000908152600a60205260409020548110610bed5760405162461bcd60e51b8152602060048201526013602482015272092dcecc2d8d2c840e6e8c2d6ca40d2dcc8caf606b1b60448201526064016102f2565b336000908152600a60205260408120805483908110610c0e57610c0e611486565b60009182526020909120600390910201600281015490915060ff16610c665760405162461bcd60e51b815260206004820152600e60248201526d5374616b6520696e61637469766560901b60448201526064016102f2565b805460009061271090610c84906001600160801b0316610bb86114de565b610c8e91906114f5565b8254909150600090610caa9083906001600160801b03166114cb565b60028401805460ff19169055600854909150610cf3906001600160a01b037f00000000000000000000000000000000000000000000000000000000000000008116911684611163565b610d276001600160a01b037f0000000000000000000000000000000000000000000000000000000000000000163383611163565b604051828152849033907fbb757047c2b5f3974fe26b7c10f732e7bce710b0952a71082702781e62ae05959060200160405180910390a3505050610ab96001600055565b610d73611199565b610d7d60006111c6565b565b6001600160a01b0381166000908152600a60209081526040808320805482518185028101850190935280835260609492939192909184015b82821015610e765760008481526020908190206040805160c0810182526003860290920180546001600160801b038116845265ffffffffffff600160801b8204811695850195909552600160b01b8104909416918301919091529091606083019060ff600160e01b909104166002811115610e3457610e34611314565b6002811115610e4557610e45611314565b815260018281015460208084019190915260029093015460ff16151560409092019190915291835292019101610db7565b505050509050919050565b610e89611199565b600854600160a01b900460ff1615610eb35760405162461bcd60e51b81526004016102f29061145a565b6008805460ff60a01b1916600160a01b17905560405133907f62e78cea01bee320cd4e420270b5ea74000d11b0c9f74754ebdbfc544b05a25890600090a2565b610efb611199565b6001600160a01b038116610f515760405162461bcd60e51b815260206004820152601860248201527f496e76616c69642074726561737572792061646472657373000000000000000060448201526064016102f2565b600880546001600160a01b0319166001600160a01b0392909216919091179055565b60058160038110610b6057600080fd5b600a6020528160005260406000208181548110610f9f57600080fd5b60009182526020909120600390910201805460018201546002909201546001600160801b038216945065ffffffffffff600160801b830481169450600160b01b8304169260ff600160e01b90930483169290911686565b600854604051636eb1769f60e11b81526001600160a01b0391821660048201523060248201526000917f0000000000000000000000000000000000000000000000000000000000000000169063dd62ed3e90604401602060405180830381865afa158015611068573d6000803e3d6000fd5b505050506040513d601f19601f8201168201806040525081019061108c9190611517565b905090565b611099611199565b6001600160a01b0381166110c357604051631e4fbdf760e01b8152600060048201526024016102f2565b610ab9816111c6565b6002600054036110ef57604051633ee5aeb560e01b815260040160405180910390fd5b6002600055565b6040516001600160a01b03848116602483015283811660448301526064820183905261115d9186918216906323b872dd906084015b604051602081830303815290604052915060e01b6020820180516001600160e01b038381831617835250505050611218565b50505050565b6040516001600160a01b0383811660248301526044820183905261119491859182169063a9059cbb9060640161112b565b505050565b6001546001600160a01b03163314610d7d5760405163118cdaa760e01b81523360048201526024016102f2565b600180546001600160a01b038381166001600160a01b0319831681179093556040519116919082907f8be0079c531659141344cd1fd0a4f28419497f9722a3daafe3b4186f6b6457e090600090a35050565b600080602060008451602086016000885af18061123b576040513d6000823e3d81fd5b50506000513d91508115611253578060011415611260565b6001600160a01b0384163b155b1561115d57604051635274afe760e01b81526001600160a01b03851660048201526024016102f2565b6000806040838503121561129c57600080fd5b823591506020830135600381106112b257600080fd5b809150509250929050565b6000602082840312156112cf57600080fd5b5035919050565b80356001600160a01b03811681146112ed57600080fd5b919050565b60006020828403121561130457600080fd5b61130d826112d6565b9392505050565b634e487b7160e01b600052602160045260246000fd5b6003811061134857634e487b7160e01b600052602160045260246000fd5b9052565b602080825282518282018190526000919060409081850190868401855b828110156113d757815180516001600160801b031685528681015165ffffffffffff908116888701528682015116868601526060808201516113ad8288018261132a565b50506080818101519086015260a09081015115159085015260c09093019290850190600101611369565b5091979650505050505050565b600080604083850312156113f757600080fd5b611400836112d6565b946020939093013593505050565b6001600160801b038716815265ffffffffffff86811660208301528516604082015260c08101611441606083018661132a565b83608083015282151560a0830152979650505050505050565b60208082526012908201527110dbdb9d1c9858dd081a5cc81c185d5cd95960721b604082015260600190565b634e487b7160e01b600052603260045260246000fd5b634e487b7160e01b600052601160045260246000fd5b808201808211156114c5576114c561149c565b92915050565b818103818111156114c5576114c561149c565b80820281158282048414176114c5576114c561149c565b60008261151257634e487b7160e01b600052601260045260246000fd5b500490565b60006020828403121561152957600080fd5b505191905056fea26469706673582212201b8fce412ef6006d0b12376b3da78ba5edfac810afd400f8aaaf76ac29a0881564736f6c63430008140033",
  "linkReferences": {},
  "deployedLinkReferences": {}
}